{
  "contractName": "KycContract",
  "abi": [
    {
      "inputs": [],
      "stateMutability": "nonpayable",
      "type": "constructor"
    },
    {
      "inputs": [
        {
          "internalType": "address",
          "name": "owner",
          "type": "address"
        }
      ],
      "name": "OwnableInvalidOwner",
      "type": "error"
    },
    {
      "inputs": [
        {
          "internalType": "address",
          "name": "account",
          "type": "address"
        }
      ],
      "name": "OwnableUnauthorizedAccount",
      "type": "error"
    },
    {
      "anonymous": false,
      "inputs": [
        {
          "indexed": true,
          "internalType": "address",
          "name": "previousOwner",
          "type": "address"
        },
        {
          "indexed": true,
          "internalType": "address",
          "name": "newOwner",
          "type": "address"
        }
      ],
      "name": "OwnershipTransferred",
      "type": "event"
    },
    {
      "inputs": [],
      "name": "owner",
      "outputs": [
        {
          "internalType": "address",
          "name": "",
          "type": "address"
        }
      ],
      "stateMutability": "view",
      "type": "function",
      "constant": true
    },
    {
      "inputs": [],
      "name": "renounceOwnership",
      "outputs": [],
      "stateMutability": "nonpayable",
      "type": "function"
    },
    {
      "inputs": [
        {
          "internalType": "address",
          "name": "newOwner",
          "type": "address"
        }
      ],
      "name": "transferOwnership",
      "outputs": [],
      "stateMutability": "nonpayable",
      "type": "function"
    },
    {
      "inputs": [
        {
          "internalType": "address",
          "name": "_addr",
          "type": "address"
        }
      ],
      "name": "setKycCompleted",
      "outputs": [],
      "stateMutability": "nonpayable",
      "type": "function"
    },
    {
      "inputs": [
        {
          "internalType": "address",
          "name": "_addr",
          "type": "address"
        }
      ],
      "name": "setKycRevoked",
      "outputs": [],
      "stateMutability": "nonpayable",
      "type": "function"
    },
    {
      "inputs": [
        {
          "internalType": "address",
          "name": "_addr",
          "type": "address"
        }
      ],
      "name": "kycCompleted",
      "outputs": [
        {
          "internalType": "bool",
          "name": "",
          "type": "bool"
        }
      ],
      "stateMutability": "view",
      "type": "function",
      "constant": true
    }
  ],
  "bytecode": "0x608060405234801561000f575f80fd5b50335f73ffffffffffffffffffffffffffffffffffffffff168173ffffffffffffffffffffffffffffffffffffffff1603610081575f6040517f1e4fbdf70000000000000000000000000000000000000000000000000000000081526004016100789190610196565b60405180910390fd5b6100908161009660201b60201c565b506101af565b5f805f9054906101000a900473ffffffffffffffffffffffffffffffffffffffff169050815f806101000a81548173ffffffffffffffffffffffffffffffffffffffff021916908373ffffffffffffffffffffffffffffffffffffffff1602179055508173ffffffffffffffffffffffffffffffffffffffff168173ffffffffffffffffffffffffffffffffffffffff167f8be0079c531659141344cd1fd0a4f28419497f9722a3daafe3b4186f6b6457e060405160405180910390a35050565b5f73ffffffffffffffffffffffffffffffffffffffff82169050919050565b5f61018082610157565b9050919050565b61019081610176565b82525050565b5f6020820190506101a95f830184610187565b92915050565b610547806101bc5f395ff3fe608060405234801561000f575f80fd5b5060043610610060575f3560e01c806370c9aedd14610064578063715018a6146100805780638da5cb5b1461008a578063dc3958cc146100a8578063df235fe4146100c4578063f2fde38b146100f4575b5f80fd5b61007e6004803603810190610079919061048b565b610110565b005b61008861016f565b005b610092610182565b60405161009f91906104c5565b60405180910390f35b6100c260048036038101906100bd919061048b565b6101a9565b005b6100de60048036038101906100d9919061048b565b610208565b6040516100eb91906104f8565b60405180910390f35b61010e6004803603810190610109919061048b565b61025a565b005b6101186102de565b6001805f8373ffffffffffffffffffffffffffffffffffffffff1673ffffffffffffffffffffffffffffffffffffffff1681526020019081526020015f205f6101000a81548160ff02191690831515021790555050565b6101776102de565b6101805f610365565b565b5f805f9054906101000a900473ffffffffffffffffffffffffffffffffffffffff16905090565b6101b16102de565b5f60015f8373ffffffffffffffffffffffffffffffffffffffff1673ffffffffffffffffffffffffffffffffffffffff1681526020019081526020015f205f6101000a81548160ff02191690831515021790555050565b5f60015f8373ffffffffffffffffffffffffffffffffffffffff1673ffffffffffffffffffffffffffffffffffffffff1681526020019081526020015f205f9054906101000a900460ff169050919050565b6102626102de565b5f73ffffffffffffffffffffffffffffffffffffffff168173ffffffffffffffffffffffffffffffffffffffff16036102d2575f6040517f1e4fbdf70000000000000000000000000000000000000000000000000000000081526004016102c991906104c5565b60405180910390fd5b6102db81610365565b50565b6102e6610426565b73ffffffffffffffffffffffffffffffffffffffff16610304610182565b73ffffffffffffffffffffffffffffffffffffffff161461036357610327610426565b6040517f118cdaa700000000000000000000000000000000000000000000000000000000815260040161035a91906104c5565b60405180910390fd5b565b5f805f9054906101000a900473ffffffffffffffffffffffffffffffffffffffff169050815f806101000a81548173ffffffffffffffffffffffffffffffffffffffff021916908373ffffffffffffffffffffffffffffffffffffffff1602179055508173ffffffffffffffffffffffffffffffffffffffff168173ffffffffffffffffffffffffffffffffffffffff167f8be0079c531659141344cd1fd0a4f28419497f9722a3daafe3b4186f6b6457e060405160405180910390a35050565b5f33905090565b5f80fd5b5f73ffffffffffffffffffffffffffffffffffffffff82169050919050565b5f61045a82610431565b9050919050565b61046a81610450565b8114610474575f80fd5b50565b5f8135905061048581610461565b92915050565b5f602082840312156104a05761049f61042d565b5b5f6104ad84828501610477565b91505092915050565b6104bf81610450565b82525050565b5f6020820190506104d85f8301846104b6565b92915050565b5f8115159050919050565b6104f2816104de565b82525050565b5f60208201905061050b5f8301846104e9565b9291505056fea26469706673582212207acbfc5cb51151e80167c8bcc8e1859b19e697f0d5eaa878b5169c8b7ac3d6be64736f6c63430008140033",
  "immutableReferences": {},
  "source": "pragma solidity ^0.8.20;\r\n\r\nimport '../node_modules/@openzeppelin/contracts/access/Ownable.sol';\r\ncontract KycContract is Ownable {\r\n\r\n  constructor() Ownable(msg.sender) {\r\n    \r\n  }\r\n\r\n  mapping(address => bool) allowed;\r\n  function setKycCompleted(address _addr) public onlyOwner {\r\n    allowed[_addr] = true;\r\n  }\r\n\r\n  function setKycRevoked(address _addr) public onlyOwner {\r\n    allowed[_addr] = false;\r\n  }\r\n\r\n  function kycCompleted(address _addr) public view returns(bool) {\r\n    return allowed[_addr];\r\n  }\r\n}",
  "sourcePath": "C:\\Users\\Funso Faleye\\desktop\\web3\\assets\\my-crowdsale-app\\contracts\\KycContract.sol",
  "compiler": {
    "name": "solc",
    "version": "0.8.20+commit.a1b79de6.Emscripten.clang"
  },
  "schemaVersion": "3.4.16",
  "updatedAt": "2024-12-30T18:15:13.965Z",
  "networkType": "ethereum",
  "devdoc": {
    "errors": {
      "OwnableInvalidOwner(address)": [
        {
          "details": "The owner is not a valid owner account. (eg. `address(0)`)"
        }
      ],
      "OwnableUnauthorizedAccount(address)": [
        {
          "details": "The caller account is not authorized to perform an operation."
        }
      ]
    },
    "kind": "dev",
    "methods": {
      "owner()": {
        "details": "Returns the address of the current owner."
      },
      "renounceOwnership()": {
        "details": "Leaves the contract without owner. It will not be possible to call `onlyOwner` functions. Can only be called by the current owner. NOTE: Renouncing ownership will leave the contract without an owner, thereby disabling any functionality that is only available to the owner."
      },
      "transferOwnership(address)": {
        "details": "Transfers ownership of the contract to a new account (`newOwner`). Can only be called by the current owner."
      }
    },
    "version": 1
  },
  "userdoc": {
    "kind": "user",
    "methods": {},
    "version": 1
  }
}